:020000040800F2
:100000000000082071080008F9070008FF07000831
:10001000050800080B08000811080008000000008F
:1000200000000000000000000000000017080008A9
:1000300025080008000000003308000841080008F7
:10004000C1080008C1080008C1080008C10800086C
:10005000C1080008C1080008C1080008C10800085C
:10006000C1080008C1080008C1080008C10800084C
:10007000C1080008C1080008C1080008C10800083C
:10008000C1080008C1080008C1080008C10800082C
:10009000C1080008C1080008C1080008C10800081C
:1000A000C1080008C1080008C1080008C10800080C
:1000B000C1080008C1080008C1080008C1080008FC
:1000C000C1080008C1080008C1080008C1080008EC
:1000D000C1080008C1080008C1080008C1080008DC
:1000E000C1080008C1080008C1080008C1080008CC
:1000F000C1080008C1080008C1080008C1080008BC
:10010000C1080008C1080008C1080008C1080008AB
:10011000C1080008C1080008C1080008C10800089B
:10012000C1080008C1080008C1080008C10800088B
:10013000C1080008C1080008C1080008C10800087B
:10014000C1080008C1080008C1080008C10800086B
:10015000C1080008C1080008C1080008C10800085B
:10016000C1080008C1080008C1080008C10800084B
:10017000C1080008C1080008C1080008000000000C
:10018000C1080008C1080008C1080008C10800082B
:10019000C1080008C1080008C1080008C10800081B
:1001A000C1080008C1080008C1080008C10800080B
:1001B000C1080008C1080008C1080008C1080008FB
:1001C000C1080008C108000800000000C1080008BC
:1001D000C1080008C1080008C1080008C1080008DB
:1001E000C1080008C1080008C1080008C1080008CB
:0801F000C1080008C108000865
:1001F80010B5054C237833B9044B13B10448AFF359
:1002080000800123237010BD0C00002000000000B6
:100218007429000808B5034B1BB103490348AFF321
:10022800008008BD000000001000002074290008AC
:1002380053B94AB9002908BF00281CBF4FF0FF3145
:100248004FF0FF3000F074B9ADF1080C6DE904CE41
:1002580000F006F8DDF804E0DDE9022304B0704799
:100268002DE9F047089D04468E46002B4DD18A4261
:10027800944669D9B2FA82F252B101FA02F3C2F194
:10028800200120FA01F10CFA02FC41EA030E944025
:100298004FEA1C48210CBEFBF8F61FFA8CF708FB46
:1002A80016E341EA034306FB07F199420AD91CEB1E
:1002B800030306F1FF3080F01F81994240F21C8150
:1002C800023E63445B1AA4B2B3FBF8F008FB103398
:1002D80044EA034400FB07F7A7420AD91CEB0404CD
:1002E80000F1FF3380F00A81A74240F2078164449D
:1002F800023840EA0640E41B00261DB1D440002322
:10030800C5E900433146BDE8F0878B4209D9002D85
:1003180000F0EF800026C5E9000130463146BDE80F
:10032800F087B3FA83F6002E4AD18B4202D3824279
:1003380000F2F980841A61EB030301209E46002D28
:10034800E0D0C5E9004EDDE702B9FFDEB2FA82F27D
:10035800002A40F09280A1EB0C014FEA1C471FFADB
:100368008CFE0126200CB1FBF7F307FB131140EAC2
:1003780001410EFB03F0884208D91CEB010103F18F
:10038800FF3802D2884200F2CB804346091AA4B251
:10039800B1FBF7F007FB101144EA01440EFB00FE25
:1003A800A64508D91CEB040400F1FF3102D2A6458A
:1003B80000F2BB800846A4EB0E0440EA03409CE729
:1003C800C6F12007B34022FA07FC4CEA030C20FAD6
:1003D80007F401FA06F31C43F9404FEA1C4900FAF6
:1003E80006F3B1FBF9F8200C1FFA8CFE09FB181173
:1003F80040EA014108FB0EF0884202FA06F20BD9E6
:100408001CEB010108F1FF3A80F08880884240F235
:100418008580A8F102086144091AA4B2B1FBF9F079
:1004280009FB101144EA014100FB0EFE8E4508D974
:100438001CEB010100F1FF346CD28E456AD90238F9
:10044800614440EA0840A0FB0294A1EB0E01A142DE
:10045800C846A64656D353D05DB1B3EB080261EB4C
:100468000E0101FA07F722FA06F3F1401F43C5E926
:10047800007100263146BDE8F087C2F12003D8405C
:100488000CFA02FC21FA03F3914001434FEA1C479E
:100498001FFA8CFEB3FBF7F007FB10360B0C43EA90
:1004A800064300FB0EF69E4204FA02F408D91CEB40
:1004B800030300F1FF382FD29E422DD9023863443E
:1004C8009B1B89B2B3FBF7F607FB163341EA0341DE
:1004D80006FB0EF38B4208D91CEB010106F1FF382D
:1004E80016D28B4214D9023E6144C91A46EA004624
:1004F80038E72E46284605E70646E3E61846F8E6B6
:100508004B45A9D2B9EB020864EB0C0E0138A3E7FE
:100518004646EAE7204694E74046D1E7D0467BE7DF
:10052800023B614432E7304609E76444023842E757
:10053800704700BF80B500AF00F0BFF900F006F8C3
:1005480000F090F800F05EF8FEE7000080B594B087
:1005580000AF07F11C0334220021184602F0FEF90F
:1005680007F1080300221A605A609A60DA601A617B
:10057800224B1B6C214A43F0805313641F4B1B6CA6
:1005880003F080537B607B681D4B1B6823F440435A
:100598001B4A43F480431360194B1B6803F4404320
:1005A8003B603B680223FB610123BB621023FB62B3
:1005B80000237B6307F11C03184600F087FC034601
:1005C800002B01D000F08CF80F23BB600023FB60E8
:1005D80000233B6100237B610023BB6107F1080313
:1005E8000021184600F020FF0346002B01D000F040
:1005F80077F800BF5037BD4680BD00BF00380240C5
:100608000070004080B500AF144B154A1A60134BB8
:100618004FF4E1325A60114B00229A600F4B0022CE
:10062800DA600E4B00221A610C4B0C225A610B4BFC
:1006380000229A61094B0022DA61084B00221A62F3
:10064800064B00225A62054801F0FCFC0346002BC9
:1006580001D000F045F800BF80BD00BF2800002091
:100668000010014080B588B000AF07F10C030022EC
:100678001A605A609A60DA601A61174B1B6B164A47
:1006880043F001031363144B1B6B03F00103BB60BE
:10069800BB68114B1B6B104A43F0020313630E4BEC
:1006A8001B6B03F002037B607B68002280210B48F0
:1006B80000F0F2FB8023FB6001233B6100237B6198
:1006C8000023BB6107F10C031946044800F038FA0F
:1006D80000BF2037BD4680BD0038024000040240FC
:1006E80080B400AF72B600BFFEE7000080B483B0EC
:1006F80000AF0F4B1B6C0E4A43F0805313640C4B36
:100708001B6C03F080537B607B68094B5B6C084A69
:1007180043F480435364064B5B6C03F480433B60B3
:100728003B6800BF0C37BD465DF8047B704700BFCF
:100738000038024080B5AEB000AF786007F1A4037E
:1007480000221A605A609A60DA601A6107F114038D
:1007580090220021184602F001F97B681B68214AA3
:1007680093423BD140237B610023BB6507F114030F
:10077800184601F03FF80346002B01D0FFF7B0FF01
:10078800194B5B6C184A43F010035364164B5B6CAF
:1007980003F010033B613B69134B1B6B124A43F098
:1007A80001031363104B1B6B03F00103FB60FB6831
:1007B8004FF4C063C7F8A4300223C7F8A830002359
:1007C800C7F8AC300323C7F8B0300723C7F8B430F4
:1007D80007F1A4031946054800F0B2F900BFB8377D
:1007E800BD4680BD001001400038024000000240B4
:1007F80080B400AFFEE780B400AFFEE780B400AF7E
:10080800FEE780B400AFFEE780B400AFFEE780B437
:1008180000AF00BFBD465DF8047B704780B400AFF1
:1008280000BFBD465DF8047B704780B400AF00BFD1
:10083800BD465DF8047B704780B500AF00F07AF8DC
:1008480000BF80BD80B400AF064BD3F88830054A9E
:1008580043F47003C2F8883000BFBD465DF8047BDE
:10086800704700BF00ED00E0DFF834D00D480E49B6
:100878000E4A002302E0D458C4500433C4188C42F2
:10088800F9D30B4A0B4C002301E013600432A24257
:10089800FBD3FFF7D7FF02F03DF8FFF74BFE704799
:1008A80000000820000000200C000020B4290008E7
:1008B8000C000020B4000020FEE780B500AF032044
:1008C80000F00AF90F2000F005F8FFF70FFF0023EA
:1008D800184680BD80B582B000AF7860124B1A68A8
:1008E800124B1B7819464FF47A73B3FBF1F3B2FB42
:1008F800F3F3184600F017F90346002B01D0012343
:100908000EE07B680F2B0AD8002279684FF0FF3081
:1009180000F0EDF8064A7B681360002300E001232D
:1009280018460837BD4680BD00000020080000209A
:100938000400002080B400AF064B1B781A46064B13
:100948001B681344044A136000BFBD465DF8047B6E
:10095800704700BF08000020B000002080B400AF3E
:10096800034B1B681846BD465DF8047B704700BF03
:10097800B000002080B485B000AF78607B6803F0D9
:100988000703FB600B4BDB68BB60BA684FF6FF03DD
:100998001340BB60FB681A02BB681A43064B13433B
:1009A800BB60044ABB68D36000BF1437BD465DF81E
:1009B800047B704700ED00E00000FA0580B400AF4A
:1009C800044BDB681B0A03F007031846BD465DF8B5
:1009D800047B704700ED00E080B483B000AF0346AD
:1009E8003960FB7197F90730002B0ADB3B68DAB2F4
:1009F8000C4997F907301201D2B20B4483F800234F
:100A08000AE03B68DAB20849FB7903F00F03043BBC
:100A18001201D2B20B441A7600BF0C37BD465DF8FE
:100A2800047B704700E100E000ED00E080B489B08D
:100A380000AFF860B9607A60FB6803F00703FB61F8
:100A4800FB69C3F10703042B28BF0423BB61FB69BF
:100A58000433062B02D9FB69033B00E000237B61CA
:100A68004FF0FF32BB6902FA03F3DA43BB681A405E
:100A78007B699A404FF0FF317B6901FA03F3D94350
:100A88007B680B40134318462437BD465DF8047B4A
:100A98007047000080B582B000AF78607B68013B8A
:100AA800B3F1807F01D301230FE00A4A7B68013B41
:100AB80053600F214FF0FF30FFF78EFF054B0022E8
:100AC8009A60044B07221A60002318460837BD466F
:100AD80080BD00BF10E000E080B582B000AF786054
:100AE8007868FFF747FF00BF0837BD4680BD80B56F
:100AF80086B000AF0346B9607A60FB7300237B6160
:100B0800FFF75CFF78617A68B9687869FFF78EFF4C
:100B1800024697F90F3011461846FFF75DFF00BFF0
:100B28001837BD4680BD80B582B000AF7860786860
:100B3800FFF7B0FF034618460837BD4680BD0000E2
:100B480080B489B000AF786039600023FB6100236E
:100B58007B6100233B610023BB610023FB6175E1DE
:100B68000122FB6902FA03F37B613B681B687A691F
:100B780013403B613A697B699A4240F064813B6863
:100B88005B6803F00303012B05D03B685B6803F047
:100B98000303022B30D17B689B68BB61FB695B0058
:100BA800032202FA03F3DB43BA691340BB613B68D3
:100BB800DA68FB695B0002FA03F3BA691343BB61A5
:100BC8007B68BA699A607B685B68BB610122FB69D4
:100BD80002FA03F3DB43BA691340BB613B685B6805
:100BE8001B0903F00102FB6902FA03F3BA69134314
:100BF800BB617B68BA695A603B685B6803F00303B2
:100C0800032B17D07B68DB68BB61FB695B000322A1
:100C180002FA03F3DB43BA691340BB613B689A6885
:100C2800FB695B0002FA03F3BA691343BB617B6893
:100C3800BA69DA603B685B6803F00303022B23D1CF
:100C4800FB69DA087B68083253F82230BB61FB691C
:100C580003F007039B000F2202FA03F3DB43BA6990
:100C68001340BB613B681A69FB6903F007039B00EB
:100C780002FA03F3BA691343BB61FB69DA087B68BC
:100C88000832B96943F822107B681B68BB61FB69AD
:100C98005B00032202FA03F3DB43BA691340BB612A
:100CA8003B685B6803F00302FB695B0002FA03F32D
:100CB800BA691343BB617B68BA691A603B685B68B1
:100CC80003F44033002B00F0BE80664B5B6C654A32
:100CD80043F480435364634B5B6C03F48043FB60D1
:100CE800FB68614AFB699B08023352F82330BB61F9
:100CF800FB6903F003039B000F2202FA03F3DB43B3
:100D0800BA691340BB617B68584A934237D07B6805
:100D1800574A934231D07B68564A93422BD07B681E
:100D2800554A934225D07B68544A93421FD07B682A
:100D3800534A934219D07B68524A934213D07B6836
:100D4800514A93420DD07B68504A934207D07B6842
:100D58004F4A934201D1092312E00A2310E00823E5
:100D68000EE007230CE006230AE0052308E004232D
:100D780006E0032304E0022302E0012300E000234D
:100D8800FA6902F0030292009340BA691343BB6107
:100D98003549FB699B080233BA6941F823203D4B6A
:100DA8009B68BB613B69DB43BA691340BB613B6825
:100DB8005B6803F48013002B03D0BA693B691343C3
:100DC800BB61344ABB699360324BDB68BB613B69EA
:100DD800DB43BA691340BB613B685B6803F40013EB
:100DE800002B03D0BA693B691343BB61294ABB692D
:100DF800D360284B5B68BB613B69DB43BA6913402E
:100E0800BB613B685B6803F40033002B03D0BA690D
:100E18003B691343BB611F4ABB6953601D4B1B6889
:100E2800BB613B69DB43BA691340BB613B685B68E4
:100E380003F48033002B03D0BA693B691343BB61C9
:100E4800144ABB691360FB690133FB61FB690F2B13
:100E58007FF686AE00BF00BF2437BD465DF8047B31
:100E6800704700BF003802400038014000000240CF
:100E78000004024000080240000C0240001002403A
:100E88000014024000180240001C024000200240EA
:100E980000240240003C014080B483B000AF786079
:100EA8000B467B8013467B707B78002B03D07A88B7
:100EB8007B689A6103E07B881A047B689A6100BFAB
:100EC8000C37BD465DF8047B7047000080B586B0DE
:100ED80000AF78600023FB757B68002B01D10123EC
:100EE8009BE27B681B6803F00103002B00F08780FE
:100EF800964B9B6803F00C03042B0CD0934B9B6818
:100F080003F00C03082B12D1904B5B6803F48003A9
:100F1800B3F5800F0BD18D4B1B6803F40033002B06
:100F28006CD07B685B68002B68D1012375E27B6815
:100F38005B68B3F5803F06D1844B1B68834A43F452
:100F4800803313602EE07B685B68002B0CD17F4BED
:100F58001B687E4A23F4803313607C4B1B687B4AF2
:100F680023F4802313601DE07B685B68B3F5A02F32
:100F78000CD1764B1B68754A43F480231360734B7E
:100F88001B68724A43F4803313600BE06F4B1B6895
:100F98006E4A23F4803313606C4B1B686B4A23F44E
:100FA800802313607B685B68002B13D0FFF7D6FCA7
:100FB800386108E0FFF7D2FC02463B69D31A642B7C
:100FC80001D9032329E2614B1B6803F40033002B8A
:100FD800F0D014E0FFF7C2FC386108E0FFF7BEFC70
:100FE80002463B69D31A642B01D9032315E2574BF8
:100FF8001B6803F40033002BF0D100E000BF7B68CE
:101008001B6803F00203002B69D0504B9B6803F068
:101018000C03002B0BD04D4B9B6803F00C03082BE3
:101028001CD14A4B5B6803F48003002B16D1474B55
:101038001B6803F00203002B05D07B68DB68012BDB
:1010480001D00123E9E1414B1B6823F0F8027B68DA
:101058001B69DB003D4913430B6040E07B68DB689C
:10106800002B23D0394B1B68384A43F00103136027
:10107800FFF774FC386108E0FFF770FC02463B6933
:10108800D31A022B01D90323C7E1304B1B6803F0A5
:101098000203002BF0D02D4B1B6823F0F8027B686D
:1010A8001B69DB00294913430B6018E0274B1B68B9
:1010B800264A23F001031360FFF750FC386108E06B
:1010C800FFF74CFC02463B69D31A022B01D90323D4
:1010D800A3E11E4B1B6803F00203002BF0D17B68D1
:1010E8001B6803F00803002B38D07B685B69002B72
:1010F80019D0164B5B6F154A43F001035367FFF78E
:101108002DFC386108E0FFF729FC02463B69D31A39
:10111800022B01D9032380E10C4B5B6F03F0020320
:10112800002BF0D01AE0094B5B6F084A23F001034B
:101138005367FFF713FC38610AE0FFF70FFC02461C
:101148003B69D31A022B03D9032366E10038024016
:10115800924B5B6F03F00203002BEED17B681B6898
:1011680003F00403002B00F0A4808C4B1B6C03F0ED
:101178008053002B0DD1894B1B6C884A43F0805358
:101188001364864B1B6C03F08053BB60BB68012360
:10119800FB75834B1B6803F48073002B18D1804BBD
:1011A8001B687F4A43F480731360FFF7D7FB3861ED
:1011B80008E0FFF7D3FB02463B69D31A642B01D939
:1011C80003232AE1764B1B6803F48073002BF0D0CD
:1011D8007B689B68012B06D1704B1B6F6F4A43F0ED
:1011E800010313672DE07B689B68002B0CD16B4BC8
:1011F8001B6F6A4A23F001031367684B1B6F674A2A
:1012080023F0040313671CE07B689B68052B0CD153
:10121800624B1B6F614A43F0040313675F4B1B6FFC
:101228005E4A43F0010313670BE05C4B1B6F5B4A9C
:1012380023F001031367594B1B6F584A23F004032B
:1012480013677B689B68002B15D0FFF787FB386115
:101258000AE0FFF783FB02463B69D31A41F2883262
:10126800934201D90323D8E04C4B1B6F03F00203D0
:10127800002BEED014E0FFF771FB38610AE0FFF7AE
:101288006DFB02463B69D31A41F28832934201D979
:101298000323C2E0414B1B6F03F00203002BEED186
:1012A800FB7D012B05D13D4B1B6C3C4A23F0805341
:1012B80013647B689B69002B00F0AE80374B9B68FA
:1012C80003F00C03082B6DD07B689B69022B4BD174
:1012D800324B1B68314A23F080731360FFF73EFBE3
:1012E800386108E0FFF73AFB02463B69D31A022B44
:1012F80001D9032391E0294B1B6803F00073002BED
:10130800F0D17B68DA697B681B6A1A437B685B6A81
:101318009B011A437B689B6A5B08013B1B041A43C9
:101328007B68DB6A1B061A437B681B6B1B071B4920
:1013380013434B60194B1B68184A43F080731360C2
:10134800FFF70CFB386108E0FFF708FB02463B6932
:10135800D31A022B01D903235FE0104B1B6803F05B
:101368000073002BF0D057E00C4B1B680B4A23F09E
:1013780080731360FFF7F2FA386108E0FFF7EEFABE
:1013880002463B69D31A022B01D9032345E0034BDC
:101398001B6803F00073002BF0D13DE000380240D9
:1013A800007000401F4B5B68FB607B689B69012BEA
:1013B80030D0FB6803F480027B68DB699A4229D14C
:1013C800FB6803F03F027B681B6A9A4222D1FA68E5
:1013D80047F6C07313407A68526A9201934219D152
:1013E800FB6803F440327B689B6A5B08013B1B0483
:1013F8009A420FD1FB6803F070627B68DB6A1B06B8
:101408009A4207D1FB6803F0E0427B681B6B1B071D
:101418009A4201D0012300E0002318461837BD4640
:1014280080BD00BF0038024080B584B000AF78604E
:1014380039600023FB607B68002B01D10123D0E0D9
:101448006A4B1B6803F00F033A689A4210D9674B3E
:101458001B6823F00F0265493B6813430B60634B1D
:101468001B6803F00F033A689A4201D00123B8E0E1
:101478007B681B6803F00203002B20D07B681B6885
:1014880003F00403002B05D0594B9B68584A43F4DA
:10149800E05393607B681B6803F00803002B05D0BA
:1014A800534B9B68524A43F460439360504B9B688C
:1014B80023F0F0027B689B684D4913438B607B687F
:1014C8001B6803F00103002B40D07B685B68012B8D
:1014D80007D1474B1B6803F40033002B15D10123B8
:1014E8007FE07B685B68022B07D1414B1B6803F0E8
:1014F8000073002B09D1012373E03D4B1B6803F0F7
:101508000203002B01D101236BE0394B9B6823F0C8
:1015180003027B685B68364913438B60FFF71EFA4A
:10152800F8600AE0FFF71AFA0246FB68D31A41F29C
:101538008832934201D9032353E02D4B9B6803F073
:101548000C027B685B689B009A42EBD1274B1B68B7
:1015580003F00F033A689A4210D2244B1B6823F019
:101568000F0222493B6813430B60204B1B6803F0B2
:101578000F033A689A4201D0012332E07B681B6866
:1015880003F00403002B08D0194B9B6823F4E052A6
:101598007B68DB68164913438B607B681B6803F024
:1015A8000803002B09D0124B9B6823F460427B6828
:1015B8001B69DB000E4913438B6000F021F80246DB
:1015C8000B4B9B681B0903F00F030A49CB5C22FAFB
:1015D80003F3094A1360094B1B681846FFF77AF9A9
:1015E800002318461037BD4680BD00BF003C0240AE
:1015F800003802408C290008000000200400002068
:101608002DE9B04F90B000AF00237B630023FB634C
:1016180000233B630023BB63594B9B6803F00C0317
:10162800082B0DD0082B00F2A180002B02D0042B30
:1016380003D09BE0534BBB639BE0534BBB6398E0E9
:101648004F4B5B6803F03F037B634D4B5B6803F4D0
:101658008003002B28D04A4B5B689B0900223B6221
:101668007A623B6AC3F308000021474B03FB01F28F
:10167800002300FB03F31344434AA0FB0212FA625F
:101688000A46BA62FA6A1344FB627B6B0022BB61AA
:10169800FA61D7E90623D7E90A01FEF7C9FD024630
:1016A8000B461346FB6353E0354B5B689B090022EE
:1016B8003B617A613B69C3F3080A4FF0000B52465D
:1016C8005B464FF000004FF00001590141EAD2613A
:1016D800500102460B46B2EB0A0863EB0B094FF0C8
:1016E80000024FF000034FEA891343EA98634FEA78
:1016F8008812B2EB080463EB09054FF000024FF0C3
:101708000003EB0043EA5473E20014461D4614EB51
:101718000A033B6045EB0B037B604FF000024FF080
:101728000003D7E9004529468B02214643EA915335
:1017380021468A02104619467B6B0022BB60FA607C
:10174800D7E90223FEF774FD02460B461346FB63F6
:101758000B4B5B681B0C03F0030301335B003B631B
:10176800FA6B3B6BB2FBF3F3BB6302E0054BBB6365
:1017780000BFBB6B18464037BD46BDE8B08F00BF01
:10178800003802400024F40040787D0180B400AFA6
:10179800034B1B681846BD465DF8047B704700BFC5
:1017A8000000002080B500AFFFF7F0FF0246054BB0
:1017B8009B689B0A03F007030349CB5C22FA03F3F7
:1017C800184680BD003802409C29000880B500AF4B
:1017D800FFF7DCFF0246054B9B685B0B03F0070332
:1017E8000349CB5C22FA03F3184680BD0038024057
:1017F8009C29000880B588B000AF786000237B6121
:1018080000233B610023FB600023FB610023BB61D5
:101818007B681B6803F00103002B12D0694B9B689F
:10182800684A23F400039360664B9A687B685B6B95
:10183800644913438B607B685B6B002B01D10123E8
:10184800FB617B681B6803F40023002B17D05D4BFA
:10185800D3F88C3023F440127B68DB6B594913436F
:10186800C1F88C307B68DB6BB3F5801F01D1012395
:10187800FB617B68DB6B002B01D10123BB617B68BB
:101888001B6803F48013002B17D04E4BD3F88C3011
:1018980023F440027B681B6C4A491343C1F88C301F
:1018A8007B681B6CB3F5800F01D10123FB617B685A
:1018B8001B6C002B01D10123BB617B681B6803F003
:1018C8008073002B01D00123FB617B681B6803F048
:1018D8002003002B00F08B803A4B1B6C394A43F0F5
:1018E80080531364374B1B6C03F08053BB60BB6899
:1018F800354B1B68344A43F480731360FFF72EF8A6
:10190800786108E0FFF72AF802467B69D31A642B4E
:1019180001D903238FE32C4B1B6803F48073002B3E
:10192800F0D0284B1B6F03F440733B613B69002BDD
:1019380035D07B681B6B03F440733A699A422ED00A
:10194800204B1B6F23F440733B611E4B1B6F1D4ADA
:1019580043F4803313671B4B1B6F1A4A23F48033FD
:101968001367184A3B691367164B1B6F03F0010393
:10197800012B14D1FEF7F2FF78610AE0FEF7EEFFC3
:1019880002467B69D31A41F28832934201D9032374
:1019980051E30C4B1B6F03F00203002BEED07B6866
:1019A8001B6B03F44073B3F5407F11D1054B9B6863
:1019B80023F4F8127B68196B044B0B40014913435D
:1019C8008B600BE00038024000700040FFFCFF0F06
:1019D800AC4B9B68AB4A23F4F8139360A94B1A6F7E
:1019E8007B681B6BC3F30B03A64913430B677B6828
:1019F8001B6803F01003002B10D0A24BD3F88C30D7
:101A0800A04A23F08073C2F88C309E4BD3F88C2008
:101A18007B689B6B9B491343C1F88C307B681B68C0
:101A280003F48043002B0AD0964BD3F8903023F46C
:101A380040327B685B6E93491343C1F890307B68F2
:101A48001B6803F40043002B0AD08E4BD3F8903068
:101A580023F440227B689B6E8A491343C1F8903077
:101A68007B681B6803F48033002B0AD0854BD3F8BE
:101A7800903023F440127B68DB6E82491343C1F82F
:101A880090307B681B6803F40033002B0AD07D4B31
:101A9800D3F8903023F440027B681B6F79491343D5
:101AA800C1F890307B681B6803F04003002B0AD014
:101AB800744BD3F8903023F003027B685B6C714958
:101AC8001343C1F890307B681B6803F08003002B38
:101AD8000AD06C4BD3F8903023F00C027B689B6CD7
:101AE80068491343C1F890307B681B6803F480731E
:101AF800002B0AD0634BD3F8903023F030027B6878
:101B0800DB6C60491343C1F890307B681B6803F4B1
:101B18000073002B0AD05B4BD3F8903023F0C0023F
:101B28007B681B6D57491343C1F890307B681B686D
:101B380003F48063002B0AD0524BD3F8903023F47F
:101B480040727B685B6D4F491343C1F890307B68E6
:101B58001B6803F40063002B0AD04A4BD3F890307B
:101B680023F440627B689B6D46491343C1F890306B
:101B78007B681B6803F48053002B0AD0414BD3F8D1
:101B8800903023F440527B68DB6D3E491343C1F823
:101B980090307B681B6803F40053002B0AD0394B44
:101BA800D3F8903023F440427B681B6E35491343C9
:101BB800C1F890307B681B6803F48003002B0AD0BF
:101BC800304BD3F8903023F080627B689B6F2D49AF
:101BD8001343C1F890307B681B6803F40013002B93
:101BE80011D0284BD3F8903023F000627B68DB6F6C
:101BF80024491343C1F890307B68DB6FB3F1006F61
:101C080001D10123BB617B681B6803F00803002B2B
:101C180001D00123BB617B681B6803F48023002B80
:101C28000AD0184BD3F8903023F040727B685B6F72
:101C380014491343C1F890307B681B6803F4000310
:101C4800002B0BD00F4BD3F8903023F080527B68D9
:101C5800D3F880300B491343C1F890307B681B6878
:101C680003F08063002B0FD0064BD3F8903023F09D
:101C780000527B68D3F8843002491343C1F890308E
:101C880002E000BF003802407B681B6803F0006375
:101C9800002B0BD08A4BD3F88C3023F000727B6872
:101CA800D3F8883086491343C1F88C307B681B68A9
:101CB80003F08053002B0BD0814BD3F88C3023F0EA
:101CC80080627B68D3F88C307D491343C1F88C302F
:101CD800FB69012B06D07B681B6803F00073002B9F
:101CE80000F0D680764B1B68754A23F0806313603A
:101CF800FEF734FE786108E0FEF730FE02467B69A5
:101D0800D31A642B01D9032395E16D4B1B6803F0AB
:101D18000063002BF0D17B681B6803F00103002BE4
:101D280021D07B685B6B002B1DD1654BD3F88430C9
:101D38001B0C03F003033B61614BD3F884301B0E8B
:101D480003F00F03FB607B685B689A013B691B0427
:101D58001A43FB681B061A437B689B681B07584994
:101D68001343C1F884307B681B6803F40023002BFD
:101D780004D07B68DB6BB3F5801F0AD07B681B68D7
:101D880003F48013002B2ED07B681B6CB3F5800FF7
:101D980029D14B4BD3F884301B0C03F003033B6170
:101DA800474BD3F884301B0F03F00703FB607B68B5
:101DB8005B689A013B691B041A437B68DB681B0656
:101DC8001A43FB681B073E491343C1F884303C4B58
:101DD800D3F88C3023F01F027B685B6A013B3849DB
:101DE8001343C1F88C307B681B6803F08073002BA9
:101DF8001DD0334BD3F884301B0E03F00F033B6127
:101E08002F4BD3F884301B0F03F00703FB607B686C
:101E18005B689A017B681B691B041A433B691B06B4
:101E28001A43FB681B0726491343C1F884307B68B3
:101E38001B6803F00073002B11D07B685B689A0164
:101E48007B681B691B041A437B68DB681B061A4303
:101E58007B689B681B071A491343C1F88430184BE9
:101E68001B68174A43F080631360FEF777FD7861BB
:101E780008E0FEF773FD02467B69D31A642B01D98B
:101E88000323D8E00E4B1B6803F00063002BF0D04F
:101E9800BB69012B40F0CE80094B1B68084A23F030
:101EA80080531360FEF75AFD78610BE0FEF756FD8C
:101EB80002467B69D31A642B04D90323BBE000BF15
:101EC800003802405E4B1B6803F00053B3F1005F1B
:101ED800ECD07B681B6803F40023002B03D07B68DD
:101EE800DB6B002B09D07B681B6803F48013002B85
:101EF8002ED07B681B6C002B2AD1514BD3F888302D
:101F08001B0C03F003033B614D4BD3F888301B0FC8
:101F180003F00703FB607B685B699A013B691B045C
:101F28001A437B689B691B061A43FB681B074449D5
:101F38001343C1F88830424BD3F88C3023F4F8525D
:101F48007B689B6A013B1B023D491343C1F88C30F7
:101F58007B681B6803F40013002B22D07B68DB6FBF
:101F6800B3F1006F1DD1364BD3F888301B0E03F048
:101F78000F033B61324BD3F888301B0F03F0070384
:101F8800FB607B685B699A017B681B6A1B041A43C8
:101F98003B691B061A43FB681B0729491343C1F811
:101FA80088307B681B6803F00803002B28D0244B7B
:101FB800D3F888301B0E03F00F033B61204BD3F896
:101FC80088301B0C03F00303FB607B685B699A0194
:101FD800FB681B041A433B691B061A437B68DB69D1
:101FE8001B0717491343C1F88830154BD3F88C30B9
:101FF80023F440327B68DB6A11491343C1F88C3003
:102008000F4B1B680E4A43F080531360FEF7A6FC83
:10201800786108E0FEF7A2FC02467B69D31A642BBC
:1020280001D9032307E0064B1B6803F00053B3F103
:10203800005FEFD1002318462037BD4680BD00BFA2
:102048000038024080B582B000AF78607B68002B12
:1020580001D1012340E07B68DB6F002B06D17B6850
:10206800002283F878207868FEF764FB7B682422D6
:10207800DA677B681B681A687B681B6822F00102B4
:102088001A60786800F02CF80346012B01D101236F
:1020980022E07B685B6A002B02D0786800F084FA43
:1020A8007B681B685A687B681B6822F490425A60F8
:1020B8007B681B689A687B681B6822F02A029A6012
:1020C8007B681B681A687B681B6842F001021A600B
:1020D800786800F00BFB034618460837BD4680BDFC
:1020E80080B588B000AF78600023BB777B689A68BA
:1020F8007B681B691A437B685B691A437B68DB69E9
:1021080013437B617B681B681A68A64B13407A6887
:10211800126879690B4313607B681B685B6823F45A
:1021280040517B68DA687B681B680A435A607B68A1
:102138009B697B617B681B6A7A6913437B617B6857
:102148001B689B6823F430617B681B687A690A43C3
:102158009A607B681B68944A934220D1934BD3F8CA
:10216800903003F00303032B16D801A252F823F092
:1021780089210008952100088F2100089B2100086B
:102188000123FB7750E10223FB774DE10423FB7722
:102198004AE10823FB7747E11023FB7744E17B689A
:1021A8001B68834A934232D1804BD3F8903003F0B6
:1021B8000C030C2B28D801A252F823F0F9210008AF
:1021C8001122000811220008112200080522000827
:1021D800112200081122000811220008FF2100081E
:1021E8001122000811220008112200080B22000801
:1021F8000023FB7718E10223FB7715E10423FB7723
:1022080012E10823FB770FE11023FB770CE17B68D1
:102218001B68684A934220D1644BD3F8903003F08E
:102228003003302B13D0302B14D8202B09D0202B7F
:1022380010D8002B02D0102B06D00BE00023FB7720
:10224800F2E00223FB77EFE00423FB77ECE00823BE
:10225800FB77E9E01023FB77E6E07B681B68564ACA
:10226800934220D1514BD3F8903003F0C003C02BD8
:1022780013D0C02B14D8802B09D0802B10D8002B5A
:1022880002D0402B06D00BE00023FB77CCE00223E2
:10229800FB77C9E00423FB77C6E00823FB77C3E09C
:1022A8001023FB77C0E07B681B68444A934225D122
:1022B8003E4BD3F8903003F44073B3F5407F17D00A
:1022C800B3F5407F17D8B3F5007F0BD0B3F5007F87
:1022D80011D8002B03D0B3F5807F06D00BE0002384
:1022E800FB77A1E00223FB779EE00423FB779BE0CA
:1022F8000823FB7798E01023FB7795E07B681B6841
:102308002F4A934225D1294BD3F8903003F44063E8
:10231800B3F5406F17D0B3F5406F17D8B3F5006F1A
:102328000BD0B3F5006F11D8002B03D0B3F5806F35
:1023380006D00BE00123FB7776E00223FB7773E0FE
:102348000423FB7770E00823FB776DE01023FB770D
:102358006AE07B681B681B4A934238D1134BD3F859
:10236800903003F44053B3F5405F17D0B3F5405FA6
:102378002AD8B3F5005F0BD0B3F5005F24D8002B43
:1023880003D0B3F5805F06D01EE00023FB774BE057
:102398000223FB7748E00423FB7745E00823FB771B
:1023A80042E000BFF369FFEF00100140003802402F
:1023B8000044004000480040004C004000500040ED
:1023C80000140140007800401023FB772CE07B6864
:1023D8001B68724A934225D1714BD3F8903003F4AD
:1023E8004043B3F5404F17D0B3F5404F17D8B3F576
:1023F800004F0BD0B3F5004F11D8002B03D0B3F525
:10240800804F06D00BE00023FB770DE00223FB771B
:102418000AE00423FB7707E00823FB7704E0102396
:10242800FB7701E01023FB777B68DB69B3F5004F8E
:102438005BD1FB7F082B28D801A252F823F000BFFC
:102448006D240008752400087D24000893240008E2
:102458008324000893240008932400089324000888
:102468008B240008FFF79EF9B86113E0FFF7AEF977
:10247800B8610FE04B4BBB610CE0FFF7C1F8B861E6
:1024880008E04FF40043BB6104E00023BB61012373
:10249800BB7700BFBB69002B74D0BB695A007B684F
:1024A8005B685B081A447B685B68B2FBF3F33B61CB
:1024B8003B690F2B16D93B69B3F5803F12D23B69B4
:1024C8009BB223F00F03FB813B695B089BB203F0CF
:1024D80007039AB2FB891343FB817B681B68FA895F
:1024E800DA604FE00123BB774CE0FB7F082B28D84C
:1024F80001A252F823F000BF252500082D25000869
:10250800352500084B2500083B2500084B25000809
:102518004B2500084B25000843250008FFF742F922
:10252800B86113E0FFF752F9B8610FE01D4BBB61CA
:102538000CE0FFF765F8B86108E04FF40043BB61B1
:1025480004E00023BB610123BB7700BFBB69002BFC
:1025580018D07B685B685A08BB691A447B685B685B
:10256800B2FBF3F33B613B690F2B09D93B69B3F528
:10257800803F05D23B699AB27B681B68DA6001E04C
:102588000123BB777B6800229A667B680022DA66A3
:10259800BB7F18462037BD4680BD00BF007C004089
:1025A800003802400024F40080B483B000AF7860A3
:1025B8007B685B6A03F00103002B0AD07B681B6809
:1025C8005B6823F400317B689A6A7B681B680A435E
:1025D8005A607B685B6A03F00203002B0AD07B68B1
:1025E8001B685B6823F480317B68DA6A7B681B6848
:1025F8000A435A607B685B6A03F00403002B0AD025
:102608007B681B685B6823F480217B681A6B7B6896
:102618001B680A435A607B685B6A03F00803002B57
:102628000AD07B681B685B6823F400417B685A6B9F
:102638007B681B680A435A607B685B6A03F0100377
:10264800002B0AD07B681B689B6823F480517B6849
:102658009A6B7B681B680A439A607B685B6A03F025
:102668002003002B0AD07B681B689B6823F4005169
:102678007B68DA6B7B681B680A439A607B685B6AD5
:1026880003F04003002B1AD07B681B685B6823F4B7
:1026980080117B681A6C7B681B680A435A607B68E8
:1026A8001B6CB3F5801F0AD17B681B685B6823F439
:1026B800C0017B685A6C7B681B680A435A607B6858
:1026C8005B6A03F08003002B0AD07B681B685B6899
:1026D80023F400217B689A6C7B681B680A435A6064
:1026E80000BF0C37BD465DF8047B704780B586B0E7
:1026F80002AF78607B680022C3F88420FEF72EF9C9
:10270800F8607B681B681B6803F00803082B0ED170
:102718006FF07E430093FB6800224FF40011786845
:1027280000F031F80346002B01D0032327E07B6833
:102738001B681B6803F00403042B0ED16FF07E4363
:102748000093FB6800224FF48001786800F01BF8C2
:102758000346002B01D0032311E07B682022DA67AF
:102768007B682022C3F880207B6800221A667B6879
:1027780000225A667B68002283F8782000231846D6
:102788001037BD4680BD80B59CB000AFF860B96019
:102798003B601346FB71A7E0BB6FB3F1FF3F00F04E
:1027A800A380FEF7DBF802463B68D31ABA6F9A4259
:1027B80002D3BB6F002B3FD1FB681B683B653B6DA9
:1027C80053E8003FFB64FB6C23F4D0737B66FB6823
:1027D8001B681A467B6EFB65BA65B96DFA6D41E8F0
:1027E80000237B657B6D002BE6D1FB681B680833F3
:1027F800FB63FB6B53E8003FBB63BB6B23F0010338
:102808003B66FB681B6808333A6EBA647B64796C74
:10281800BA6C41E800233B643B6C002BE5D1FB68B4
:102828002022DA67FB682022C3F88020FB68002298
:1028380083F87820032368E0FB681B681B6803F0B3
:102848000403002B50D0FB681B68DB6903F40063AA
:10285800B3F5006F48D1FB681B684FF400621A6239
:10286800FB681B68BB62BB6A53E8003F7B627B6AFC
:1028780023F4D073FB66FB681B681A46FB6E7B6308
:102888003A63396B7A6B41E80023FB62FB6A002BE1
:10289800E6D1FB681B6808337B617B6953E8003F1E
:1028A8003B613B6923F00103BB66FB681B68083387
:1028B800BA6E3A62FB61F9693A6A41E80023BB6182
:1028C800BB69002BE5D1FB682022DA67FB68202270
:1028D800C3F88020FB682022C3F88420FB6800220C
:1028E80083F87820032310E0FB681B68DA69BB686B
:1028F8001340BA689A420CBF01230023DBB21A4680
:10290800FB799A423FF448AF002318467037BD461A
:1029180080BD000070B50D4D0D4C641BA410002641
:10292800A64209D10B4D0C4C00F020F8641BA410F2
:102938000026A64205D170BD55F8043B98470136DC
:10294800EEE755F8043B98470136F2E7AC29000852
:10295800AC290008AC290008B02900080244034645
:10296800934200D1704703F8011BF9E7F8B500BF9F
:10297800F8BC08BC9E467047F8B500BFF8BC08BC58
:042988009E467047B0
:10298C000000000000000000010203040607080913
:08299C00000000000102030429
:0829A400C4D8FF7F0100000010
:0429AC001D02000800
:0429B000F901000821
:0C29B4000024F4001000000001000000EE
:040000050800087176
:00000001FF
